{
  "_format": "hh-sol-artifact-1",
  "contractName": "Counter",
  "sourceName": "contracts/Counter.sol",
  "abi": [
    {
      "inputs": [],
      "name": "decrement",
      "outputs": [],
      "stateMutability": "nonpayable",
      "type": "function"
    },
    {
      "inputs": [],
      "name": "increment",
      "outputs": [],
      "stateMutability": "nonpayable",
      "type": "function"
    },
    {
      "inputs": [],
      "name": "showCount",
      "outputs": [
        {
          "internalType": "uint256",
          "name": "",
          "type": "uint256"
        }
      ],
      "stateMutability": "view",
      "type": "function"
    }
  ],
  "bytecode": "0x608060405234801561001057600080fd5b506102a4806100206000396000f3fe608060405234801561001057600080fd5b50600436106100415760003560e01c80632baeceb7146100465780635f0b844414610050578063d09de08a1461006e575b600080fd5b61004e610078565b005b6100586100d5565b6040516100659190610110565b60405180910390f35b6100766100de565b005b60008054036100bc576040517f08c379a00000000000000000000000000000000000000000000000000000000081526004016100b3906101ae565b60405180910390fd5b6000808154809291906100ce906101fd565b9190505550565b60008054905090565b6000808154809291906100f090610226565b9190505550565b6000819050919050565b61010a816100f7565b82525050565b60006020820190506101256000830184610101565b92915050565b600082825260208201905092915050565b7f436f756e742063616e6e6f742062652061206e65676574697665206e756d626560008201527f7200000000000000000000000000000000000000000000000000000000000000602082015250565b600061019860218361012b565b91506101a38261013c565b604082019050919050565b600060208201905081810360008301526101c78161018b565b9050919050565b7f4e487b7100000000000000000000000000000000000000000000000000000000600052601160045260246000fd5b6000610208826100f7565b91506000820361021b5761021a6101ce565b5b600182039050919050565b6000610231826100f7565b91507fffffffffffffffffffffffffffffffffffffffffffffffffffffffffffffffff8203610263576102626101ce565b5b60018201905091905056fea26469706673582212204115d40b2805a671dd09f7af2c41d1d0420287b14b39ea166dc7ba79d2f114c064736f6c63430008110033",
  "linkReferences": {},
  "deployedLinkReferences": {}
}